:020000040800F2
:10000000C0090020ED1D00085D0300085F03000823
:1000100063030008670300086B030008000000008A
:100020000000000000000000000000007103000854
:100030006F03000800000000730300087503000848
:1000400077030008790300087B0300087D0300089C
:100050007F0300088103000883030008850300086C
:1000600087030008890300088B0300088D0300083C
:100070008F0300089103000893030008950300080C
:1000800097030008990300089B030008071E000857
:10009000071E0008071E0008071E0008A503000829
:1000A000A7030008A9030008AB030008AD0300087C
:1000B000AF030008B1030008B3030008B50300084C
:1000C000B7030008B9030008BB030008BD0300081C
:1000D000BF030008C1030008C3030008C5030008EC
:1000E000C7030008C9030008CB03000800F002F8AA
:1000F00000F047F80AA090E8000C82448344AAF17B
:100100000107DA4501D100F03CF8AFF2090EBAE878
:100110000F0013F0010F18BFFB1A43F0010318473B
:10012000AC2A0000CC2A0000103A24BF78C878C15D
:10013000FAD8520724BF30C830C144BF04680C60ED
:10014000704700000023002400250026103A28BF35
:1001500078C1FBD8520728BF30C148BF0B60704739
:10016000782901F06987002070471FB59DE80300DA
:1001700002F0F4FA02F0F2F81FBD10B502F057F9E0
:1001800010BD02F087F91146FFF7EFFF00F06DF8A0
:1001900002F08CFA03B4FFF7F0FF03BC02F050FC4E
:1001A00070B504460D46E1B2384800F04BFE00BF82
:1001B0004021364800F0B4FE0028F9D0204670BD3A
:1001C00010B533A001F004FF002413E035490C55AD
:1001D0000846015D34A001F0FBFEE11704EB11714C
:1001E0000911A4EB01110F2902D131A001F0F0FE99
:1001F000601C84B2FF2CE9DD4FF480720021294895
:1002000001F0BBF92BA001F0E3FE4FF48072002156
:100210002D4801F07FFA002420E02B48005D2149A1
:10022000095D884208D02848015D1FA001F0D0FE7A
:1002300026A001F0CDFE10BD2348015D1AA001F0FB
:10024000C7FEE11704EB11710911A4EB01110F298D
:1002500002D117A001F0BCFE601C84B2FF2CDCDDD3
:1002600029A001F0B5FE00BFE5E701F046F801F076
:1002700088F801F00DF927A001F0AAFE2FA001F0E7
:10028000A7FEFFF79DFF00BFFEE70000004400400F
:1002900044617461206B6965752063686172200A2E
:1002A0000D0000004000002030782530325820003A
:1002B0000A0D00000A0D20646F63206C61692064E0
:1002C000617461200A0D000040010020B445727283
:1002D0006F723A204475206C6965752067686920E3
:1002E00076E020646F632049324320454550524FE9
:1002F0004D206B68F46E672067696F6E67206E68CB
:100300006175200A200D0000537563636573730DDA
:100310000A0000000D0A204932432028415432349B
:100320004330322920646F632076E02067686920BB
:100330006B69656D20747261200D0A000D0A20281A
:100340004D61792020322032303139202D20323356
:100350003A31323A313729200D0A0000704700BF88
:10036000FEE700BFFEE700BFFEE700BFFEE7704705
:1003700070477047704770477047704770477047C5
:1003800070477047704770477047704770477047B5
:1003900070477047704770477047704770477047A5
:1003A0007047704770477047704770477047704795
:1003B0007047704770477047704770477047704785
:1003C0007047704770477047704770477047704775
:1003D0007047704770477047704770477047704765
:1003E000704770477047704770477047704700000C
:1003F00031490143314A1160704770B50021002333
:100400000F22C47804B32D4C246804F4E064C4F5CE
:10041000E064210AC1F10403CA40447804FA03F1FC
:100420008478144021430901254C0678A1550478AD
:1004300004F01F050124AC4005786D11AD0005F1F5
:10044000E025C5F8004109E0047804F01F05012407
:10045000AC401C4D0678761145F8264070BD1A4A0E
:100460000A400243154B1B1F1A60704739B1134AEB
:10047000121D12680243114B1B1D1A6006E00F4A41
:10048000121D126882430D4B1B1D1A607047042811
:1004900008D14FF0E021096941F004014FF0E0225A
:1004A000116107E04FF0E021096921F004014FF0EC
:1004B000E0221161704700000000FA050CED00E039
:1004C00000E400E080E100E080FFFF1F10B504467B
:1004D000CC48844208D10121042000F02DFB0021EA
:1004E000042000F029FB46E0C748844208D10121DE
:1004F000082000F021FB0021082000F01DFB3AE05D
:10050000C248844208D10121102000F015FB0021CF
:10051000102000F011FB2EE0BD48844208D10121DB
:10052000202000F009FB0021202000F005FB22E044
:10053000B848844208D10121402000F0FDFA002192
:10054000402000F0F9FA16E0B348844208D10121B6
:10055000802000F0F1FA0021802000F0EDFA0AE09E
:10056000AE48844207D10121801500F0E5FA002150
:10057000A01500F0E1FA10BD10B50121084600F009
:10058000DBFA0021012000F0D7FA10BD2DE9F0417F
:10059000024600250026002000230024002791F8B1
:1005A00003C00CF00F0591F803C00CF0100CBCF167
:1005B000000F03D091F802C04CEA050591F800C085
:1005C000BCF1000F31D0146800202BE04FF0010C7B
:1005D0000CFA00F3B1F800C00CEA03069E4220D1E9
:1005E00083004FF00F0C0CFA03F7BC4305FA03FC31
:1005F0004CEA040491F803C0BCF1280F06D14FF077
:10060000010C0CFA00FCC2F814C00AE091F803C017
:10061000BCF1480F05D14FF0010C0CFA00FCC2F8F8
:1006200010C0401C0828D1D31460B1F800C0BCF140
:10063000FF0F34DD546800202EE000F1080C4FF06D
:10064000010808FA0CF3B1F800C00CEA03069E4258
:1006500021D183004FF00F0C0CFA03F7BC4305FACD
:1006600003FC4CEA040491F803C0BCF1280F05D147
:1006700000F1080C08FA0CF8C2F8148091F803C0D5
:10068000BCF1480F07D100F1080C4FF0010808FA3F
:100690000CF8C2F81080401C0828CED35460BDE886
:1006A000F0814FF6FF710180022181700421C17039
:1006B00070470246002093680B400BB1012000E018
:1006C000002070470146886880B2704702460020CB
:1006D000D3680B400BB1012000E0002070470146B9
:1006E000C86880B2704701617047416170470AB1C4
:1006F000016100E041617047C16070474FF4803292
:100700000A4382618161826182698269704702461F
:100710000020434B18684FF68073184040EA0210DF
:1007200008433F4B186070473E49C8617047F0B5B9
:100730000A46002300240021002500F00046B6F1FF
:10074000004F02D1364EF16901E0354E7168C0F3B9
:10075000034583B200F44016B6F5401F08D121F0DE
:1007600070612F4E766826F070662D4F7E6012E025
:1007700000F48016B6F5801F06D1032606FA05F4AC
:10078000A14341F0706106E0460D360103FA06F61A
:10079000B14341F0706122B1460D360103FA06F60D
:1007A000314300F00046B6F1004F02D11C4EF1611A
:1007B00001E01B4E7160F0BD30B500228B071C0FAD
:1007C0000F2303FA04F2164B08338C1053F824302D
:1007D0009343134C08348D1044F8253023468C1075
:1007E00053F824308C07240F00FA04F423430C4CF4
:1007F00008348D1044F8253030BD0A49DC310860DA
:100800007047000000080140000C0140001001404A
:100810000014014000180140001C0140002001406C
:100820000000014000002042DF48006840F0010065
:10083000DD49086008464068DC490840DA494860FC
:1008400008460068DA490840D74908600846006849
:1008500020F4802008600846406820F4FE004860CC
:100860004FF41F0088607047CF49096821F4803138
:10087000CD4A11601146096821F480211160B0F55C
:10088000803F03D0B0F5802F0ED106E0C64909683D
:1008900041F48031C44A116007E0C349096841F45A
:1008A000A021C14A116000E000BF00BF704710B531
:1008B00001460022002300204A11012A02D1BA4C2D
:1008C000236806E0022A02D1B74C236A01E0B64C45
:1008D000636A01F01F02012494401C400CB1012006
:1008E00000E0002010BD38B5002000900024002555
:1008F00000BF3120FFF7DBFF05460098401C009049
:100900000098B0F5A06F01D0002DF2D03120FFF794
:10091000CEFF08B1012400E00024204638BD014686
:100920000020A14A106820F0F80040EAC1001060E1
:100930007047A04908607047024600209A4B5868EB
:1009400020F47C1042EA01031843974B586070472B
:1009500098490866704701460020934A506820F085
:1009600003000843506070478F48406800F00C0057
:100970007047014600208C4A506820F0F000084380
:100980005060704701460020874A506820F4E060BC
:1009900008435060704701460020834A506820F4A5
:1009A000605040EAC1005060704729B17E4A527AD7
:1009B00002437D4B5A7204E07B4A527A82437A4B5F
:1009C0005A7270477B49D831086070470146002051
:1009D000754A506820F44040084350607047002139
:1009E000714A20321170704A82F82010012802D01A
:1009F00004280AD104E001216B4A2032117005E07D
:100A00000521694A2032117000E000BF00BF704725
:100A10006949086070476449096A0143624A116282
:100A20007047654944390860704730B5002100229D
:100A3000002400235C4D6D6805F00C0121B10429F0
:100A400005D0082923D105E05C4D056022E05B4D0F
:100A500005601FE0544D6D6805F47012524D6D68CD
:100A600005F48034022505EB92421CB9544D5543E0
:100A700005600BE04C4D6D6805F400351DB1504D1F
:100A80005543056002E04D4D5543056002E04B4D76
:100A9000056000BF00BF444D6D6805F0F001090915
:100AA000484D6B5C0568DD4045603F4D6D6805F461
:100AB000E061090A434D6B5C4568DD4085603A4D55
:100AC0006D6805F46051C90A3E4D6B5C4568DD40B8
:100AD000C560354D6D6805F44041890B3A4D6B5C3E
:100AE000C568B5FBF3F5056130BD29B12E4A5269E1
:100AF00002432D4B5A6104E02B4A526982432A4B30
:100B00005A61704729B1284A92690243264B9A617B
:100B100004E0254A92698243234B9A61704729B1C8
:100B2000214AD2690243204BDA6104E01E4AD269AD
:100B300082431D4BDA61704729B11B4AD2680243D8
:100B4000194BDA6004E0184AD2688243164BDA6027
:100B5000704729B1144A12690243134B1A6104E029
:100B6000114A12698243104B1A6170471249403989
:100B7000086070470F49C86470470B49C8717047D7
:100B80000948406A40F08070074948627047014652
:100B90000020054A92680A400AB1012000E00020C6
:100BA0007047014988727047001002400000FFF84A
:100BB000FFFFF6FE000042428004424200127A002B
:100BC00000093D00000000201000002010B5044680
:100BD000FB48844209D101218803FFF7ADFF0021C2
:100BE0004FF48040FFF7A8FF32E0F648844209D175
:100BF00001214804FFF7ADFF00214FF40030FFF75B
:100C0000A8FF25E0F048844209D101218804FFF7BC
:100C1000A0FF00214FF48020FFF79BFF18E0EB4876
:100C2000844209D10121C804FFF793FF00214FF44A
:100C30000020FFF78EFF0BE0E548844208D1012138
:100C40000805FFF786FF00214FF48010FFF781FFB2
:100C500010BD2DE9F04786B005460E460024A24699
:100C600000BFA1460027B08900B100BF2F462C8AE3
:100C70004CF6FF700440F08804432C82AC894EF699
:100C8000F3100440B0883189084371890843044354
:100C9000AC81AC8A4FF6FF400440B0890443AC827B
:100CA00001A8FFF7C2FEC648874202D1DDF810A0B6
:100CB00001E0DDF80CA0A88900F4004040B10AEB87
:100CC000CA0000EB0A1031684900B0FBF1F807E0F8
:100CD0000AEBCA0000EB0A1031688900B0FBF1F89A
:100CE0006420B8FBF0F004012009642101FB1089A5
:100CF000A88900F4004040B1322000EBC900B0FBED
:100D0000F1F000F00700044308E0322000EB091086
:100D10006421B0FBF1F000F00F0004432C8106B019
:100D2000BDE8F0874FF41651016000218180C18039
:100D300001810C21418100218181704710B502465B
:100D40000020108A4FF2FF0318400B884C88234381
:100D50008C882343CC8823431843108210BD002184
:100D6000018041808180C180704721B1828942F435
:100D70000052828104E082894DF6FF731A4082811D
:100D80007047F0B50346002400260025002040F6F9
:100D90006A17B94200D100BF1846C1F3421401F0EE
:100DA0001F06012707FA06F5012C01D10C3004E0DB
:100DB000022C01D1103000E014301AB107682F4323
:100DC000076002E00768AF430760F0BD1AB1838A8D
:100DD0000B43838202E0838A8B4383827047028ABB
:100DE0004FF6F0731A400282028A0A430282704769
:100DF00082894FF2FF731A40828182890A4382817D
:100E0000704721B1828942F00202828104E0828926
:100E10004FF6FD731A4082817047028A4FF6DF73E6
:100E20001A400282028A0A430282704721B1028A72
:100E300042F48042028204E0028A4BF6FF731A40B9
:100E400002827047C1F30802828070470146888899
:100E5000C0F308007047818941F00101818170472A
:100E6000028BD2B20283028B42EA012202837047D4
:100E7000028B02F47F420283028B0A430283704793
:100E800021B1828A42F02002828204E0828A4FF6F7
:100E9000DF731A408282704721B1828A42F01002C9
:100EA000828204E0828A4FF6EF731A408282704792
:100EB00021B1828A42F00802828204E0828A4FF6DF
:100EC000F7731A408282704721B1828942F400424E
:100ED000828103E08289C2F30E028281704721B1D0
:100EE000828A42F40062828204E0828A4FF2FF73B7
:100EF0001A4082827047828A4FF6FB731A408282C0
:100F0000828A0A438282704721B1828A42F00202B9
:100F1000828204E0828A4FF6FD731A408282704713
:100F200002460020B1F5007F00D100BF13880B40BE
:100F30000BB1012000E00020704701F40072B2F50F
:100F4000007F00D100BFCA430280704770B50246DF
:100F5000002400230025002040F66A16B14200D18B
:100F600000BFC1F3421501F01F03012606FA03F387
:100F7000012D02D19689334006E0022D02D1168A56
:100F8000334001E0968A33400C12012606FA04F43D
:100F90001688344013B10CB1012000E0002070BD70
:100FA00010B50022002340F66A14A14200D100BF10
:100FB0000A1201249440A3B2DC43048010BD000057
:100FC000003801400044004000480040004C004010
:100FD0000050004010B50446BE48844208D10121AB
:100FE0008014FFF7A9FD0021A014FFF7A5FD16E06E
:100FF000B948844208D101210014FFF7AAFD00215D
:101000002014FFF7A6FD0AE0B448844207D101216D
:10101000C013FFF79EFD0021E013FFF79AFD10BDFE
:1010200010B50022028802F441520B884C882343F9
:101030008C882343CC8823430C8923434C89234346
:101040008C892343CC8923431A430280838B4FF23C
:10105000FF74234083830B8A038210BD2DE9F04F78
:1010600085B005460C464FF0000902274FF00008F6
:101070004FF0010B0026B246A88B4FF2400108400A
:10108000A88302202884B5F81C90A068022801D10A
:1010900000BF38E0A08810B94FF0010B01E04FF01D
:1010A000020B8D48854200D100E000BF6846FFF783
:1010B000BCFCDDF800A0E088B0F5007F0AD14FEA63
:1010C0001A2000EB80004000A168B0FBF1F0401D49
:1010D00086B20BE04FEA4B10BAFBF0F000EB800059
:1010E0004000A168B0FBF1F0401D86B20A20B6FBBB
:1010F000F0F606F00108A6EB0800C0F34F074FF624
:10110000FF7000EA0828022F01DBFF2F02DD022713
:101110004FF00008E08840EA080038432884A0889F
:10112000A1890843618808432188084340F400608E
:1011300040EA0909A5F81C9005B0BDE8F08F002130
:10114000018041808180C180018141818181C18193
:101150000721018270470021018041808180C18088
:101160000221816000218181704721B1028842F013
:101170004002028004E002884FF6BF731A400280EA
:10118000704721B1828B42F48062828304E0828BBB
:101190004FF6FF331A408283704730B50024002396
:1011A0000C110125A540ABB21AB185881D4385807D
:1011B00002E085889D43858030BD1AB183880B434A
:1011C000838002E083888B438380704781817047EE
:1011D0000146888970474FF6FF62914204D0028829
:1011E00042F48072028004E002884FF6FF631A40E6
:1011F0000280704721B1828842F00402828004E0BC
:1012000082884FF6FB731A408280704702884FF243
:10121000FF731A40028002880A43028070470188E7
:1012200041F480510180704721B1028842F400529C
:10123000028004E002884DF6FF731A400280704776
:1012400002460020012901D0108B00E0908A7047EF
:101250000146088A7047B1F5804F04D1028842F4F4
:101260008042028004E002884BF6FF731A4002803D
:1012700070470246002013890B400BB1012000E0AB
:1012800000207047CA4302817047F0B50246002033
:1012900000240023002501F00F070126BE40B4B250
:1012A0000B1101269E40B3B2968806EA0305168903
:1012B000264016B10DB1012000E00020F0BD10B5B0
:1012C000002201F00F040123A3409AB2D34303810B
:1012D00010BD00000030014000380040003C0040DC
:1012E000002107E0002200E0521C42F6FF239A4250
:1012F000FAD3491C8142F5D3704710B50121480447
:10130000FFF70DFC01210420FFF7FCFB04203E4900
:1013100008801820C870032088703C48FFF736F911
:101320000820394908800420C8703848FFF72EF992
:101330004FF4E1303649086000208880C880088179
:1013400088810C2048813348FFF783FC26203249EE
:1013500008700020887048700120C8700846FFF7A8
:101360004CF840F225512B48FFF7E7FD012240F2EF
:1013700025512848FFF705FD01212648FFF7F5FC18
:1013800010BD10B501211D20FFF7BCFB4FF400502C
:101390001D490880032088704820C8701F48FFF747
:1013A000F5F810BD10B5012141F20400FFF7AAFBCA
:1013B000E02015490880032088701820C870134861
:1013C000FFF7E4F8102010490880032088701020EF
:1013D000C8700E48FFF7DAF80020114908804FF472
:1013E0008270488000208880C88008814FF4007097
:1013F000488100208881C8810A48FFF711FE012139
:101400000848FFF7B2FE10BD14000020000801409C
:10141000400200200044004018000020001001405D
:10142000500200200030014008B501210820FFF7DC
:1014300069FB01214805FFF772FBC020ADF80000F1
:1014400003208DF802001C208DF803006946E74850
:10145000FFF79CF808BD1FB50020ADF804004BF65F
:10146000FF70ADF806000A20ADF808004FF4806068
:10147000ADF80A000001ADF80C00DD480090012134
:10148000DC4800F058FA6946DA4800F0D6F91FBD8A
:1014900010B5FFF7C9FFFFF7DEFFA020D64908808F
:1014A00010BD08B50020009000BF0121D14800F018
:1014B00066FA1421CF4800F0C1FA0090CE480178B6
:1014C0000022CC4800F0B1FA1421CA4800F0B6FA64
:1014D00000F002000028E8D0C849C64800F06FFBC1
:1014E0000121C44800F057FA08BD70B504460E4605
:1014F000154600BF4FF40031BE4800F043FB002802
:10150000F8D10121BB4800F03AFA00BFBC49B94804
:1015100000F016FB0028F9D0B74801780022B54842
:1015200000F083FA00BFB749B24800F009FB002879
:10153000F9D03146AF4800F072FA00BFB149891CBA
:10154000AC4800F0FDFA0028F8D00CE02178A9485A
:1015500000F065FA641C00BFAA49891CA54800F088
:10156000EFFA0028F8D0281EA5F10101CDB2EDD187
:101570000121A04800F00FFA70BD2DE9F0470746A1
:101580000D4614464FF00008C146C24600262846C4
:10159000E91705EB5171C910A5EBC10101F0FF0A74
:1015A000CAF10800C6B22046E11704EB5171C1F33D
:1015B000C708E11704EB5171C910A4EBC10101F098
:1015C000FF09BAF1000F28D1B8F1000F07D14A4640
:1015D00029463846FFF789FFFFF763FF60E00AE01E
:1015E000082229463846FFF780FFFFF75AFF05F12A
:1015F0000800C5B20837B8F10000A8F1010101F0F8
:10160000FF08EDD1B9F1000F4AD04A4629463846C5
:10161000FFF76BFFFFF745FF42E0B8F1000F07D17E
:101620004A4629463846FFF760FFFFF73AFF37E0A2
:10163000A01B84B22046E11704EB5171C1F3C70827
:10164000E11704EB5171C910A4EBC10101F0FF09CE
:101650004EB1324629463846FFF747FFFFF721FFD4
:10166000A819C5B237440AE0082229463846FFF7D0
:101670003CFFFFF716FF05F10800C5B20837B8F1C7
:101680000000A8F1010101F0FF08EDD1B9F1000F50
:1016900006D04A4629463846FFF727FFFFF701FFE5
:1016A000BDE8F08770B504460D460121514800F0B1
:1016B00066F900BF52494F4800F042FA0028F9D0BD
:1016C0004D48017800224B4800F0AFF900BF4D496A
:1016D000484800F035FA0028F9D02946454800F07E
:1016E0009EF900BF4749891C424800F029FA0028AA
:1016F000F8D021783F4800F092F900BF4149891C99
:101700003C4800F01DFA0028F8D00121394800F0CB
:1017100042F970BD70B505460E46144600BF4FF441
:101720000031344800F02EFA0028F8D10121314868
:1017300000F025F900BF32492E4800F001FA0028D8
:10174000F9D02D48017800222A4800F06EF900BF38
:101750002C49284800F0F4F90028F9D00121254847
:1017600000F0E9F83146234800F059F900BF254957
:10177000891C204800F0E4F90028F8D001211D4818
:1017800000F0FDF800BF1E491A4800F0D9F9002802
:10179000F9D0194801780122164800F046F900BF37
:1017A0001749491C134800F0CBF90028F8D016E07F
:1017B000012C07D100210F4800F0F9F801210D4854
:1017C00000F0E9F80E493F310A4800F0B9F930B1AC
:1017D000084800F026F928706D1C601E84B2002CA9
:1017E000E6D10121034800F0E2F870BD000C014091
:1017F000801A0600005400401C0000200004001065
:10180000010003008200070010B50446F748844237
:1018100009D101214805FFF79CF900214FF4001080
:10182000FFF797F908E001218805FFF792F90021F9
:101830004FF48000FFF78DF910BD2DE9F04385B01E
:1018400004460D460026B1460427DFF8A483A68887
:101850004FF6C07006406846FFF7E7F8DDF80880ED
:10186000E448B8FBF0F01FFA80F946EA0906A680C2
:1018700020884FF6FE71084020800026DE49286847
:1018800088420CD828684000B8FBF0F087B2042FDB
:1018900000DA04273E4309F10100208427E0E888AC
:1018A0004BF6FF71884206D1286800EB4000B8FB78
:1018B000F0F087B209E0286800EBC00101EB0010EE
:1018C000B8FBF0F087B247F48047C7F30B0008B9C4
:1018D00047F0010747F4004006434FF4967009FBB8
:1018E00000F04FF47A7190FBF1F0401C2084A68345
:1018F000208840F00100208026884FF6F530064011
:10190000A8886989084306432680A889298908434D
:10191000208105B0BDE8F08341F2883101600021EB
:1019200081804BF6FF71C1800021018141814FF41C
:1019300080418181704721B1028842F0010202801A
:1019400004E002884FF6FE731A400280704721B10E
:10195000828842F40062828004E082884FF2FF7342
:101960001A408280704721B1828842F4805282807E
:1019700004E082884EF6FF731A408280704721B1DE
:10198000028842F48072028004E002884FF6FF630E
:101990001A400280704721B1028842F4007202802E
:1019A00004E002884FF6FF531A400280704721B1CD
:1019B000028842F48062028004E002884FF6FF331E
:1019C0001A40028070470A46002181894FF6017350
:1019D000194002F0FE0319438181704721B18289C9
:1019E00042F00102828104E082894FF6FE731A40C0
:1019F0008281704721B1028842F04002028004E0F7
:101A000002884FF6BF731A40028070471AB183886C
:101A10000B43838002E083888B438380704701827D
:101A200070470146088AC0B2704712B141F0010107
:101A300002E04FF6FE7319400182704708B5024676
:101A400000200090009200980844009000980088C0
:101A500008BD21B1028842F40042028003E00288FE
:101A6000C2F30E0202807047B1F5006F04D1028804
:101A700042F40062028004E002884FF2FF731A40D1
:101A800002807047B1F5005F04D1028842F4005231
:101A9000028004E002884DF6FF731A40028070470E
:101AA00021B1028842F48052028004E002884EF69E
:101AB000FF731A4002807047B1F5006F04D10288AD
:101AC00042F40062028004E002884FF2FF731A4081
:101AD0000280704721B1028842F02002028004E0B7
:101AE00002884FF6DF731A40028070470146088B68
:101AF0000012704721B1028842F01002028004E017
:101B000002884FF6EF731A400280704721B90288AD
:101B100042F08002028004E002884FF67F731A4090
:101B200002807047B1F5804F05D0828B4BF6FF7372
:101B30001A40828303E0828B42F4804282837047A2
:101B400070B502460024002500230020958A138BDF
:101B50001B0445EA030626F07F4404EA01068E4290
:101B600001D1012000E0002070BD10B50146002029
:101B7000002300228B8A0A8B120443EA020424F019
:101B80007F4010BD0CB50246002000230193009356
:101B900000920B0F019321F07F41019B1BB1009B31
:101BA0001433009303E0090C009B18330093009B4F
:101BB0001B680B400BB1012000E000200CBD00228F
:101BC00021F07F42D3438382704730B50246002024
:101BD0000023948801F0E06504EA154321F07F4179
:101BE000948A0C4054B14BB1012008E000540040ED
:101BF00000127A0040420F00A0860100002030BD94
:101C0000002221F07F42D343838270470CB500202D
:101C1000019000906C48006840F480306A49086088
:101C200000BF6948006800F4003000900198401C33
:101C30000190009818B90198B0F5A06FF1D16248F1
:101C4000006800F4003010B10120009001E0002095
:101C500000900098012843D15C48006840F01000D3
:101C60005A4908600846006820F0030008600846EA
:101C7000006840F0020008605348406852494860DC
:101C80000846406848600846406840F48060486004
:101C90000846406820F47C1048600846406840F4DC
:101CA000E81048600846006840F08070086000BF97
:101CB0004548006800F000700028F9D042484068AC
:101CC00020F00300404948600846406840F00200A8
:101CD000486000BF3C48406800F00C000828F9D17B
:101CE0000CBD10B5FFF792FF10BD10B53648006867
:101CF00040F0010034490860084640683449084013
:101D00003149486008460068324908402E49086059
:101D10000846006820F4802008600846406820F4E7
:101D2000FE0048604FF41F008860FFF7DAFF4FF0B5
:101D300000602949086010BD10B500210020002274
:101D4000214B5B6803F00C0121B1042906D008295E
:101D500028D107E0214B224C236027E01F4B204C69
:101D6000236023E0184B5B6803F47010164B5B682C
:101D700003F48032022303EB904022B9194B434312
:101D8000174C23600DE0104B5B6803F4003323B164
:101D9000144B4343124C236003E0104B4343104C5D
:101DA000236003E00D4B0E4C236000BF00BF064BC9
:101DB0005B68C3F303130C4CE15C094B1B68CB401D
:101DC000074C236010BD00000010024000200240BC
:101DD0000000FFF8FFFFF6FE08ED00E000127A00B9
:101DE0002000002000093D00240000200948804711
:101DF00009480047FEE7FEE7FEE7FEE7FEE7FEE7ED
:101E0000FEE7FEE7FEE7FEE704480549054A064B04
:101E100070470000EB1C0008ED000008C003002024
:101E2000C0090020C0050020C00500204FF0FF3091
:101E300000BE704700BE704770B504460D4614B929
:101E40004FF0FF3070BD20783A281AD15AA12046B1
:101E500000F0BAF910B948F20100F3E758A12046A2
:101E600000F0B2F910B948F20200EBE756A12046A3
:101E700000F0AAF910B948F20300E3E74FF0FF3091
:101E8000E0E74FF0FF30DDE701466FF40040084423
:101E900020B1012804D0022806D103E000207047B9
:101EA0000020FCE70020FAE74FF0FF30F7E72DE9CC
:101EB000F04106460C46154698466FF40040304403
:101EC00020B1012806D0022811D10EE04FF0FF30DA
:101ED000BDE8F08105E014F8017B3846FFF7AAFF62
:101EE0006D1E002DF7D10020F2E70020F0E74FF043
:101EF000FF30EDE72DE9F04107460E4614469846BF
:101F00006FF40040384420B1012810D0022814D1C9
:101F100010E0FFF78BFF0546002D03DA44F0004088
:101F2000BDE8F08106F8015B641E2046F8E74FF03B
:101F3000FF30F5E74FF0FF30F2E74FF0FF30EFE70B
:101F400000BE704701466FF40040084420B10128EC
:101F500004D0022806D103E0012070470120FCE7ED
:101F60000120FAE70020F8E702466FF40040104431
:101F700020B1012805D0022809D105E04FF0FF303B
:101F800070474FF0FF30FBE74FF0FF30F8E74FF0BE
:101F9000FF30F5E701466FF40040084420B1012806
:101FA00004D0022806D103E0002070470020FCE79F
:101FB0000020FAE70020F8E73A535444494E000065
:101FC0003A5354444F5554003A53544445525200E6
:101FD0000FB4044910B503AA029800F091F910BC9F
:101FE0005DF814FBB802002070B5044685690068EE
:101FF000C10601D5302600E02026C00707D070BDFD
:10200000D4E9012130469047206A401C20626D1EB1
:10201000F6D570BD70B5044685690078C00707D154
:1020200070BDD4E9012120209047206A401C206225
:102030006D1EF6D570BD000070B504460D462146F4
:102040001068AFF300802188090502D50F4A7A4451
:1020500002E00E4A7A440E32002104F1240305E026
:1020600000F00F060009965D5E54491C0028F7D168
:1020700020780023000704D5702D02D009B1022377
:1020800011322046BDE8704000F0E1B83F0B00007F
:102090002DE9F05F894604464FF0000ADFF824B1CD
:1020A000FB44C0F820A02046E168884700287DD086
:1020B000252806D0D4E901219047206A401C2062DF
:1020C000F1E700255F462046E1688847202806465C
:1020D00007DB312E05D2B81910F8200C08B10543E2
:1020E000F1E7A80701D525F00405C4F81CA00027D6
:1020F000C4F818A02A2E09D0304600F037FD38B3B6
:1021000004EB8708303EC8F8186019E059F8041B42
:10211000204604EB87029161E1688847012F06465B
:1021200018D1E069002820DA25F020051DE0D8F854
:10213000180000EB800006EB40003038C8F81800AB
:102140002046E1688847064600F010FD0028EED1E1
:10215000012F0AD02E2E08D12046E16888477F1C27
:102160000646022F45F02005C4DBA069002803DAEB
:10217000404245F00105A061E80701D025F01005B7
:10218000A6B1A6F14100192802D8203645F4006511
:102190004A463146204625604D46FDF7E1FF60B1D5
:1021A000012807D0ED1D25F0070000E007E000F151
:1021B000080978E705F1040975E730467AE7206AEF
:1021C000BDE8F09F150B00004FF0013C50F8042BC8
:1021D00051F8043B9A4221D1A2EB0C03934313EA3A
:1021E000CC1317D150F8042B51F8043B9A4215D167
:1021F000A2EB0C03934313EACC130BD150F8042B3E
:1022000051F8043B9A4209D1A2EB0C03934313EA21
:10221000CC13DBD04FF00000704700BFD01A01BADA
:10222000B1FA81F101F0180122FA01F0CB40C1F1BD
:102230002001DBB2C0B2C01A2CFA01F3D11A9143CB
:1022400011EAC311E6D170477047704770472DE916
:10225000F0470D4699469246044600F1240801686D
:10226000880604D5E06921F01001216000E001201A
:10227000A84201DD471B00E00027A1697A1902EBA3
:102280000900081AA0612078C00602D42046FFF792
:10229000ABFE002608E0D4E901211AF806009047B9
:1022A000206A401C761C20624E45F4DB2078C00674
:1022B0000AD52046FFF798FE06E0D4E90121302038
:1022C0009047206A401C2062381EA7F10107F4DC09
:1022D00007E0D4E9012118F805009047206A401C66
:1022E0002062281EA5F10105F3DC2046FFF792FECF
:1022F0002078000602D50220BDE8F0870120FBE728
:10230000074B70B50D467B4400F011F80446284693
:1023100000F020F810B14FF0FF3070BD204670BDC6
:1023200097DEFFFF01694A1C02610878704700B51B
:102330008FB0CDE901310021059105497944CDE9FE
:10234000031011466846FFF7A3FE0FB000BD000062
:10235000E5FFFFFF007B00F08000704710B54248AA
:10236000542100F0B3F94148542100F0AFF940483E
:10237000542100F0ABF93F493B483C4A3F4B0860D1
:102380003D490A603A491960531C0365481C1065B1
:10239000012008653B48344A39A1784400F0EAF846
:1023A00020B9384878440A3800F089F937482F4A6C
:1023B00035A1784400F0DEF820B9344878440A3872
:1023C00000F07DF932482A4A2FA1784400F0D2F873
:1023D00020B92F4878440A3800F071F94023224888
:1023E000DC000021224600F0A1F820B12548784405
:1023F000543800F064F91D4822464023002100F0C3
:1024000095F820B121487844543800F058F918481C
:1024100022461023002100F089F8002806D01C482D
:102420007844BDE81040563800F049B910BD104856
:1024300070B5006D20F001040B4800F011F90B4855
:1024400000F00EF90A4800F00BF909E0206D20F0C9
:102450000105204600F004F9204600F040F82C4623
:10246000002CF3D170BD000064020020B8020020EF
:102470000C03002034000020380000203C00002025
:1024800072000000DC07000077000000CB070000AE
:10249000BB070000754600F041F9AE4605006946ED
:1024A000534620F00700854618B020B5FFF7ACFC76
:1024B000BDE820404FF000064FF000074FF0000845
:1024C0004FF0000B21F00701AC46ACE8C009ACE8C6
:1024D000C009ACE8C009ACE8C0098D46704770B5CA
:1024E0000446051F00F01EF90068002C14BF446864
:1024F00070BD002C18BFAC423CBF20466468F8D3C6
:1025000001680A18AA4218BF456003D12A68054627
:102510001144016028684119A1421CBF6C6070BD64
:102520006168696021680844286070BD70B5C4683E
:10253000A50713D0650211D4B2F5807F09D0B2F59A
:10254000007F06D0B2F5806F08D1012300F124018D
:1025500006E05D1E6FF07F46B54201D3012070BDDD
:102560000161C361416024F470611143C1600020C6
:1025700070BD00002DE9F0410C4607461646104696
:1025800000F06EF82078611C61280AD0722802D011
:1025900077283CD102E00125002405E0022504242F
:1025A00002E0082448F2020511F8010B2B2806D09E
:1025B000622809D011F8010C74280AD00BE045F00C
:1025C000030544F00204EFE745F0040544F001047C
:1025D000EAE744F0100438462146FFF72DFC411C81
:1025E00015D00021316171604FF40071F560F16127
:1025F0007061200704D530460222002100F00CF95A
:10260000306D40F0010030653046BDE8F0810020BB
:10261000FBE72DE9F0410D460646104C206DC10741
:1026200004D0410804D020F00104F7E722460EE070
:10263000542000F0C2F807000ED0206D47F00101D1
:10264000084354212065384600F040F83A462946B0
:102650003046BDE8F0418DE70020D6E76402002057
:102660002DE9F04704464FF000094FF0FF37C568E9
:10267000D4E90486A80707D0204600F07DF930464B
:10268000FFF702FC002802DA3846BDE8F08728058B
:1026900002D54046FFF723FF4C21204600F016F8F4
:1026A000206D20F0010020654846EEE710B5044695
:1026B000AFF300802046BDE81040FDF76BBD10B5BC
:1026C00000F0A4F9BDE8104000F09AB94FF0000204
:1026D00000B5134694469646203922BFA0E80C5018
:1026E000A0E80C50B1F12001BFF4F7AF090728BFF3
:1026F000A0E80C5048BF0CC05DF804EB890028BF6F
:1027000040F8042B08BF704748BF20F8022B11F097
:10271000804F18BF00F8012B704700000048704739
:10272000600300200048704768030020704770472E
:102730007047704738B504460A4600206946AFF333
:102740000080002808BF38BD02460099204600F0EE
:1027500084F9012038BD012000F0D3B9F8B5AFF3FA
:102760000080054600200C46102000BF0646A81930
:10277000A0420DD9324669460020AFF30080070021
:1027800008BF00F0BEF90098A04218BF0546C41962
:10279000FFF7C8FF05600746F01D20F00700461947
:1027A000284600F053F9B44208BFF8BDA21B3146D9
:1027B0003868BDE8F84000F050B970B50646FFF73C
:1027C000B1FF056806F10B0020F00704B4429CBF7E
:1027D000002070BD2B466A68BAB11068A04210D3C1
:1027E00004F1080188423CBF5068586007D3516823
:1027F000101941601168091B016058601460101DB8
:1028000070BD13465268002AE7D121462846FFF7DB
:1028100091FF0028DED170BD2DE9F0410446164637
:102820000D464769007B80072ED03846FFF78AFBAC
:1028300050BB3EB3012E02D0022E25D104E020462B
:1028400000F025F905441DE03846FFF7A3FBE168D9
:10285000002841F01001E16005DA204600F058F848
:102860000120BDE8F081C9030BD56268E16A91429D
:1028700000D81146A26911442269891A814200DDFB
:1028800008460544002D01DA0220EAE7E16A6068A3
:10289000E268814206D29103E06203D522F400315E
:1028A00041F01002A6690027AE4213DCE16A8142C2
:1028B00001D90B4600E0034603EB060C2369ACEBA1
:1028C000030CAC4506DD814201D98C4600E084460C
:1028D0009C4505D1A760276042F02000A5620DE06D
:1028E000AD1BE669AE1B8142A66000D90846C01A3E
:1028F000281A20605819606022F02000034908401F
:10290000E060002084F84870ABE70000BFCFD7FF3D
:10291000C16821F4001141F08001C1600021816093
:10292000016070472DE9F047814614460E464FF08E
:10293000FF383248D5685769054209D03846A16941
:10294000FFF712FB002811DB2C48C0430540E5606F
:102950002B46324649463846FFF7A9FAA16920F0CE
:102960000042B21A11440028A16103D02046FFF7AB
:10297000CFFF4046BDE8F08770B504460569C06AE0
:102980006168884200D80846E16821F42011E160BE
:10299000C90312D5A84208D02246411B2846FFF79A
:1029A000C1FF10B14FF0FF3070BD0020E562C4E9F7
:1029B0000150E06820F48030E060002070BD10B568
:1029C0000446C06820F02000E060A16AA069884247
:1029D0000DD02046FFF7D0FFE06820F4405040F0D3
:1029E0001000E060A06AA0612069E062606044F2CB
:1029F0004001E0688843E06010BD00001000020064
:102A0000002801D000F01CB87047000010B5014646
:102A100002A000F05DF8012010BD000053494752AC
:102A2000545245443A2052656469726563743A2091
:102A300063616E2774206F70656E3A20000000009D
:102A400001491820ABBEFEE726000200002101600C
:102A5000C0E90110704710207047034640688C465B
:102A6000002818BF88423CBF03464068F8D3186866
:102A70001844884207D00CF1030020F00700001D25
:102A8000411A521A0146081D0A60FFF728BD10B509
:102A90000146C268900703D0900607D5886A0AE00D
:102AA00000F038F801210160881E10BD8B6948686C
:102AB00018440B69C01A91F848301BB191F84910BD
:102AC000401A10BD1103FCD50028FADD401E10BDD0
:102AD00070B505460C460A2000E06D1CFFF730FA81
:102AE00035B128780028F8D102E0641CFFF728FAF5
:102AF00014B120780028F8D1BDE870400A20FFF713
:102B00001FBA10B500F00AF8BDE81040FFF778BF13
:102B100070470000004870476003002010B501288E
:102B200005D0002103A0FFF7D3FF012010BD09A1AC
:102B3000F8E7000053494752544D454D3A204F7530
:102B400074206F662068656170206D656D6F7279A5
:102B5000000000003A2048656170206D656D6F725D
:102B60007920636F727275707465640030380A285A
:102B700001D201207047002070473A535444494E17
:102B8000003A5354444F5554003A5354444552521A
:102B900000303132333435363738394142434445D9
:102BA00046403058003031323334353637383961A9
:102BB000626364656640307800040000080000002D
:102BC000000000000200010000100000EC2B0008D3
:102BD0000000002040000000280100082C2C000804
:102BE00040000020800900004401000800000000AF
:102BF000010203040102030406070809020406088F
:102C000000000000000000000000000000A24A04D4
:102C1000000000000000000001020304060708098C
:0C2C2000000000000000000000000000A8
:04000005080000ED02
:00000001FF
