:100000000C945D000C9485000C9485000C94850084
:100010000C9485000C9485000C9485000C9485004C
:100020000C9485000C9485000C9485000C9485003C
:100030000C9485000C9485000C9485000C9485002C
:100040000C942D020C9485000C949D020C94770264
:100050000C9485000C9485000C9485000C9485000C
:100060000C9485000C9485000000000024002700FB
:100070002A0000000000250028002B0004040404CE
:100080000404040402020202020203030303030342
:10009000010204081020408001020408102001021F
:1000A00004081020000000080002010000030407FB
:1000B00000000000000000005B0411241FBECFEF11
:1000C000D8E0DEBFCDBF11E0A0E0B1E0EEE6F9E0A0
:1000D00002C005900D92A631B107D9F721E0A6E143
:1000E000B1E001C01D92A13CB207E1F710E0CDE5FF
:1000F000D0E004C02197FE010E94AA04CC35D107AC
:10010000C9F70E94CF020C94B5040C940000EEEAEB
:10011000F0E09491EAE9F0E02491E6E8F0E0E4917F
:10012000EE2309F43CC0992339F1933091F038F46F
:100130009130A9F0923001F594B59F7D12C09730AF
:1001400091F09830A1F09430B9F4909180009F7DA7
:1001500003C0909180009F77909380000DC094B56C
:100160009F7794BD09C09091B0009F7703C0909194
:10017000B0009F7D9093B000F0E0EE0FFF1FEE58AF
:10018000FF4FA591B4919FB7F894811104C08C9151
:100190002095282302C0EC912E2B2C939FBF08950D
:1001A00090E0FC01E057FF4F2491FC01E458FF4F21
:1001B0008491882399F090E0880F991FFC01E859F9
:1001C000FF4FA591B491FC01EE58FF4F859194919A
:1001D0008FB7F894EC91E22BEC938FBF08953FB763
:1001E000F8948091BD019091BE01A091BF01B091A2
:1001F000C00126B5A89B05C02F3F19F00196A11D8F
:10020000B11D3FBFBA2FA92F982F8827820F911DAC
:10021000A11DB11DBC01CD0142E0660F771F881FF3
:10022000991F4A95D1F70895CF92DF92EF92FF92EE
:100230000F931F93CF93DF936C017A018B01C0E082
:10024000D0E0CE15DF0581F0D8016D918D01D6018A
:10025000ED91FC910190F081E02DC6010995892B6B
:1002600011F02196EECF7E01C701DF91CF911F9152
:100270000F91FF90EF90DF90CF900895089580E068
:1002800090E00895FC01538D448D252F30E0842F9C
:1002900090E0821B930B541710F0CF9608950197AE
:1002A0000895FC01918D828D981761F0828DDF0198
:1002B000A80FB11D5D968C91928D9F5F9F73928F59
:1002C00090E008958FEF9FEF0895FC01918D828D4E
:1002D000981731F0828DE80FF11D858D90E008951B
:1002E0008FEF9FEF0895FC01918D228D892F90E073
:1002F000805C9F4F821B91098F739927089587E136
:1003000091E00E94730121E0892B09F420E0822F03
:100310000895FC01848DDF01A80FB11DA35ABF4FC2
:100320002C91848D90E001968F739927848FA689F4
:10033000B7892C93A089B1898C91837080648C9348
:10034000938D848D981306C00288F389E02D8081F7
:100350008F7D80830895EF92FF920F931F93CF9329
:10036000DF93EC0181E0888F9B8D8C8D981305C005
:10037000E889F989808185FD26C0F62E0B8D10E075
:100380000F5F1F4F0F731127E02E8C8DE8120CC0EA
:100390000FB607FCFACFE889F989808185FFF5CF90
:1003A000CE010E948901F1CF8B8DFE01E80FF11D76
:1003B000E35AFF4FF0829FB7F8940B8FEA89FB89CD
:1003C000808180620AC09FB7F894EE89FF896083BC
:1003D000E889F98980818370806480839FBF81E090
:1003E00090E0DF91CF911F910F91FF90EF900895D2
:1003F000CF93DF93EC01888D8823C9F0EA89FB89CC
:10040000808185FD05C0A889B9898C9186FD0FC0C2
:100410000FB607FCF5CF808185FFF2CFA889B98997
:100420008C9185FFEDCFCE010E948901E7CFDF914E
:10043000CF91089580E090E0892B29F00E947F0100
:1004400081110C94000008958EBD00000DB407FECC
:10045000FDCF8EB508950E94B0041F920F920FB683
:100460000F9211242F933F938F939F93AF93BF933A
:100470008091B9019091BA01A091BB01B091BC01EA
:100480003091B80123E0230F2D3720F40196A11DF0
:10049000B11D05C026E8230F0296A11DB11D2093B2
:1004A000B8018093B9019093BA01A093BB01B093B6
:1004B000BC018091BD019091BE01A091BF01B0919E
:1004C000C0010196A11DB11D8093BD019093BE0195
:1004D000A093BF01B093C001BF91AF919F918F9145
:1004E0003F912F910F900FBE0F901F9018951F9264
:1004F0000F920FB60F9211242F933F934F935F9358
:100500006F937F938F939F93AF93BF93EF93FF93DB
:1005100087E191E00E948901FF91EF91BF91AF9136
:100520009F918F917F916F915F914F913F912F910B
:100530000F900FBE0F901F9018951F920F920FB63D
:100540000F9211242F938F939F93EF93FF93E0913A
:100550002701F09128018081E0912D01F0912E0179
:1005600082FD12C09081809130018F5F8F73209146
:100570003101821751F0E0913001F0E0E95EFE4F69
:10058000958F8093300101C08081FF91EF919F9101
:100590008F912F910F900FBE0F901F901895CF93B2
:1005A000DF93CDB7DEB7A1970FB6F894DEBF0FBECD
:1005B000CDBF789484B5826084BD84B5816084BDEC
:1005C00085B5826085BD85B5816085BD80916E00F1
:1005D000816080936E001092810080918100826022
:1005E000809381008091810081608093810080915F
:1005F00080008160809380008091B100846080934E
:10060000B1008091B00081608093B00080917A0049
:10061000846080937A0080917A00826080937A006F
:1006200080917A00816080937A0080917A0080685E
:1006300080937A001092C100E0912701F091280187
:1006400082E08083E0912301F09124011082E09107
:100650002501F09126018FEC808310922F01E0910B
:100660002B01F0912C0186E08083E0912901F0912B
:100670002A01808180618083E0912901F0912A0123
:10068000808188608083E0912901F0912A01808136
:1006900080688083E0912901F0912A0180818F7D1B
:1006A00080838AE00E94D00081E00E9487001FB70B
:1006B000F89480911601811123C0E6E8F0E084915E
:1006C000EAE9F0E09491E82FF0E0EE0FFF1FE8591F
:1006D000FF4FA591B491EC91E92319F481E00E94B8
:1006E00087008AE00E94D0008CB580618CBD8CB5FB
:1006F00080648CBD8DE00E94D0008BE00E94D00011
:10070000809116018F5F809316011FBF9AE0892E9A
:10071000912CA12CB12C1092B4011092B501109221
:10072000B6011092B701C090B401D090B501E0902D
:10073000B601F090B70120E2C216D104E104F10441
:1007400018F580E00E94870082E00E94240280E089
:100750000E94240280E00E9424028C2D0E94240228
:100760008C2D0E94240281E00E9487008FEFC81A1E
:10077000D80AE80AF80AC092B401D092B501E09212
:10078000B601F092B701CFCF1092B4011092B5012B
:100790001092B6011092B701C090B401D090B5018B
:1007A000E090B601F090B701E0E2CE16D104E1048A
:1007B000F10408F07DC080E00E94870083E00E9481
:1007C000240280E00E94240280E00E9424028C2DFA
:1007D0000E94240280E00E942402182F81E00E94DF
:1007E0008700212F30E040E050E019A28E010F5D1C
:1007F0001F4FCA01B901A50194010E948804605DE0
:10080000F80162938F01211531054105510589F7E2
:10081000309761F001900020E9F73197AF01401B5C
:10082000510BB80187E191E00E94140142E050E0D1
:1008300062E171E087E191E00E9414010E94EF0003
:100840006B017C0184E6482E512C612C712C0E9496
:10085000EF00DC01CB018C199D09AE09BF09883E70
:100860009340A105B10598F3F1E04F1A51086108D2
:10087000710828EEC20E23E0D21EE11CF11C4114C7
:1008800051046104710419F78091B4019091B5018C
:10089000A091B601B091B7010196A11DB11D809341
:1008A000B4019093B501A093B601B093B70174CF92
:1008B0000E941A0230CFE7E1F1E01382128288EE43
:1008C00093E0A0E0B0E084839583A683B78384E0BF
:1008D00091E09183808385EC90E09587848784EC18
:1008E00090E09787868780EC90E0918B808B81ECFD
:1008F00090E0938B828B82EC90E0958B848B86ECDE
:1009000090E0978B868B118E128E138E148E089525
:10091000A1E21A2EAA1BBB1BFD010DC0AA1FBB1F03
:10092000EE1FFF1FA217B307E407F50720F0A21B75
:10093000B30BE40BF50B661F771F881F991F1A94E2
:1009400069F760957095809590959B01AC01BD010C
:10095000CF010895EE0FFF1F0590F491E02D09944B
:0E09600081E090E0F8940C94B504F894FFCF79
:10096E0000000000AB0114014201F80173015101B6
:06097E0065010D0A0000F6
:107E0000112484B714BE81FFF0D085E080938100F7
:107E100082E08093C00088E18093C10086E0809377
:107E2000C20080E18093C4008EE0C9D0259A86E02C
:107E300020E33CEF91E0309385002093840096BBD3
:107E4000B09BFECF1D9AA8958150A9F7CC24DD24C4
:107E500088248394B5E0AB2EA1E19A2EF3E0BF2EE7
:107E6000A2D0813461F49FD0082FAFD0023811F036
:107E7000013811F484E001C083E08DD089C08234E0
:107E800011F484E103C0853419F485E0A6D080C0E4
:107E9000853579F488D0E82EFF2485D0082F10E0AE
:107EA000102F00270E291F29000F111F8ED06801E7
:107EB0006FC0863521F484E090D080E0DECF843638
:107EC00009F040C070D06FD0082F6DD080E0C81688
:107ED00080E7D80618F4F601B7BEE895C0E0D1E017
:107EE00062D089930C17E1F7F0E0CF16F0E7DF06D8
:107EF00018F0F601B7BEE89568D007B600FCFDCFD4
:107F0000A601A0E0B1E02C9130E011968C91119780
:107F100090E0982F8827822B932B1296FA010C0160
:107F200087BEE89511244E5F5F4FF1E0A038BF0790
:107F300051F7F601A7BEE89507B600FCFDCF97BE46
:107F4000E89526C08437B1F42ED02DD0F82E2BD052
:107F50003CD0F601EF2C8F010F5F1F4F84911BD097
:107F6000EA94F801C1F70894C11CD11CFA94CF0C13
:107F7000D11C0EC0853739F428D08EE10CD085E9AC
:107F80000AD08FE07ACF813511F488E018D01DD067
:107F900080E101D065CF982F8091C00085FFFCCF94
:107FA0009093C60008958091C00087FFFCCF809118
:107FB000C00084FD01C0A8958091C6000895E0E648
:107FC000F0E098E1908380830895EDDF803219F02E
:107FD00088E0F5DFFFCF84E1DECF1F93182FE3DFCA
:107FE0001150E9F7F2DF1F91089580E0E8DFEE27F6
:047FF000FF270994CA
:027FFE00040479
:0400000300007E007B
:00000001FF
